{
  "contractName": "AdoptionCentre",
  "abi": [
    {
      "inputs": [
        {
          "internalType": "string",
          "name": "name",
          "type": "string"
        },
        {
          "internalType": "string",
          "name": "symbol",
          "type": "string"
        },
        {
          "internalType": "uint256",
          "name": "amount",
          "type": "uint256"
        }
      ],
      "stateMutability": "nonpayable",
      "type": "constructor"
    },
    {
      "anonymous": false,
      "inputs": [
        {
          "indexed": false,
          "internalType": "string",
          "name": "userName",
          "type": "string"
        },
        {
          "indexed": false,
          "internalType": "address",
          "name": "addr",
          "type": "address"
        }
      ],
      "name": "AcquireUserInfo",
      "type": "event"
    },
    {
      "anonymous": false,
      "inputs": [
        {
          "indexed": true,
          "internalType": "address",
          "name": "owner",
          "type": "address"
        },
        {
          "indexed": true,
          "internalType": "address",
          "name": "spender",
          "type": "address"
        },
        {
          "indexed": false,
          "internalType": "uint256",
          "name": "value",
          "type": "uint256"
        }
      ],
      "name": "Approval",
      "type": "event"
    },
    {
      "anonymous": false,
      "inputs": [
        {
          "indexed": false,
          "internalType": "bytes32",
          "name": "uuid",
          "type": "bytes32"
        },
        {
          "indexed": false,
          "internalType": "string",
          "name": "eventMsg",
          "type": "string"
        },
        {
          "indexed": false,
          "internalType": "bool",
          "name": "success",
          "type": "bool"
        }
      ],
      "name": "LoginEvent",
      "type": "event"
    },
    {
      "anonymous": false,
      "inputs": [
        {
          "indexed": false,
          "internalType": "string",
          "name": "eventType",
          "type": "string"
        },
        {
          "indexed": false,
          "internalType": "string",
          "name": "eventMsg",
          "type": "string"
        },
        {
          "indexed": false,
          "internalType": "bool",
          "name": "success",
          "type": "bool"
        }
      ],
      "name": "OperationEvents",
      "type": "event"
    },
    {
      "anonymous": false,
      "inputs": [
        {
          "indexed": true,
          "internalType": "address",
          "name": "from",
          "type": "address"
        },
        {
          "indexed": true,
          "internalType": "address",
          "name": "to",
          "type": "address"
        },
        {
          "indexed": false,
          "internalType": "uint256",
          "name": "value",
          "type": "uint256"
        }
      ],
      "name": "Transfer",
      "type": "event"
    },
    {
      "inputs": [
        {
          "internalType": "address",
          "name": "owner",
          "type": "address"
        },
        {
          "internalType": "address",
          "name": "spender",
          "type": "address"
        }
      ],
      "name": "allowance",
      "outputs": [
        {
          "internalType": "uint256",
          "name": "",
          "type": "uint256"
        }
      ],
      "stateMutability": "view",
      "type": "function",
      "constant": true
    },
    {
      "inputs": [
        {
          "internalType": "address",
          "name": "spender",
          "type": "address"
        },
        {
          "internalType": "uint256",
          "name": "amount",
          "type": "uint256"
        }
      ],
      "name": "approve",
      "outputs": [
        {
          "internalType": "bool",
          "name": "",
          "type": "bool"
        }
      ],
      "stateMutability": "nonpayable",
      "type": "function"
    },
    {
      "inputs": [
        {
          "internalType": "address",
          "name": "account",
          "type": "address"
        }
      ],
      "name": "balanceOf",
      "outputs": [
        {
          "internalType": "uint256",
          "name": "",
          "type": "uint256"
        }
      ],
      "stateMutability": "view",
      "type": "function",
      "constant": true
    },
    {
      "inputs": [
        {
          "internalType": "uint256",
          "name": "amount",
          "type": "uint256"
        }
      ],
      "name": "burn",
      "outputs": [],
      "stateMutability": "nonpayable",
      "type": "function"
    },
    {
      "inputs": [
        {
          "internalType": "address",
          "name": "account",
          "type": "address"
        },
        {
          "internalType": "uint256",
          "name": "amount",
          "type": "uint256"
        }
      ],
      "name": "burnFrom",
      "outputs": [],
      "stateMutability": "nonpayable",
      "type": "function"
    },
    {
      "inputs": [],
      "name": "decimals",
      "outputs": [
        {
          "internalType": "uint8",
          "name": "",
          "type": "uint8"
        }
      ],
      "stateMutability": "view",
      "type": "function",
      "constant": true
    },
    {
      "inputs": [
        {
          "internalType": "address",
          "name": "spender",
          "type": "address"
        },
        {
          "internalType": "uint256",
          "name": "subtractedValue",
          "type": "uint256"
        }
      ],
      "name": "decreaseAllowance",
      "outputs": [
        {
          "internalType": "bool",
          "name": "",
          "type": "bool"
        }
      ],
      "stateMutability": "nonpayable",
      "type": "function"
    },
    {
      "inputs": [
        {
          "internalType": "address",
          "name": "spender",
          "type": "address"
        },
        {
          "internalType": "uint256",
          "name": "addedValue",
          "type": "uint256"
        }
      ],
      "name": "increaseAllowance",
      "outputs": [
        {
          "internalType": "bool",
          "name": "",
          "type": "bool"
        }
      ],
      "stateMutability": "nonpayable",
      "type": "function"
    },
    {
      "inputs": [],
      "name": "name",
      "outputs": [
        {
          "internalType": "string",
          "name": "",
          "type": "string"
        }
      ],
      "stateMutability": "view",
      "type": "function",
      "constant": true
    },
    {
      "inputs": [],
      "name": "symbol",
      "outputs": [
        {
          "internalType": "string",
          "name": "",
          "type": "string"
        }
      ],
      "stateMutability": "view",
      "type": "function",
      "constant": true
    },
    {
      "inputs": [],
      "name": "totalSupply",
      "outputs": [
        {
          "internalType": "uint256",
          "name": "",
          "type": "uint256"
        }
      ],
      "stateMutability": "view",
      "type": "function",
      "constant": true
    },
    {
      "inputs": [
        {
          "internalType": "address",
          "name": "recipient",
          "type": "address"
        },
        {
          "internalType": "uint256",
          "name": "amount",
          "type": "uint256"
        }
      ],
      "name": "transfer",
      "outputs": [
        {
          "internalType": "bool",
          "name": "",
          "type": "bool"
        }
      ],
      "stateMutability": "nonpayable",
      "type": "function"
    },
    {
      "inputs": [
        {
          "internalType": "bytes32",
          "name": "uuid",
          "type": "bytes32"
        }
      ],
      "name": "logout",
      "outputs": [],
      "stateMutability": "nonpayable",
      "type": "function"
    },
    {
      "inputs": [
        {
          "internalType": "int64",
          "name": "top",
          "type": "int64"
        },
        {
          "internalType": "int64",
          "name": "bottom",
          "type": "int64"
        },
        {
          "internalType": "int64",
          "name": "left",
          "type": "int64"
        },
        {
          "internalType": "int64",
          "name": "right",
          "type": "int64"
        },
        {
          "internalType": "int64",
          "name": "radius",
          "type": "int64"
        },
        {
          "internalType": "bytes32",
          "name": "uuid",
          "type": "bytes32"
        }
      ],
      "name": "getAnimalNearBy",
      "outputs": [
        {
          "components": [
            {
              "internalType": "bytes32",
              "name": "animalID",
              "type": "bytes32"
            },
            {
              "internalType": "int64",
              "name": "longitude",
              "type": "int64"
            },
            {
              "internalType": "int64",
              "name": "latitude",
              "type": "int64"
            },
            {
              "internalType": "string",
              "name": "contactUserName",
              "type": "string"
            },
            {
              "internalType": "uint256",
              "name": "price",
              "type": "uint256"
            },
            {
              "internalType": "string",
              "name": "imageBase64",
              "type": "string"
            },
            {
              "internalType": "string",
              "name": "title",
              "type": "string"
            },
            {
              "internalType": "string",
              "name": "description",
              "type": "string"
            },
            {
              "internalType": "string",
              "name": "status",
              "type": "string"
            }
          ],
          "internalType": "struct AdoptionCentre.AnimalInfo[]",
          "name": "",
          "type": "tuple[]"
        },
        {
          "internalType": "uint256",
          "name": "",
          "type": "uint256"
        },
        {
          "internalType": "bool",
          "name": "",
          "type": "bool"
        }
      ],
      "stateMutability": "nonpayable",
      "type": "function"
    },
    {
      "inputs": [
        {
          "internalType": "address",
          "name": "sender",
          "type": "address"
        },
        {
          "internalType": "address",
          "name": "recipient",
          "type": "address"
        },
        {
          "internalType": "uint256",
          "name": "amount",
          "type": "uint256"
        }
      ],
      "name": "transferFrom",
      "outputs": [
        {
          "internalType": "bool",
          "name": "",
          "type": "bool"
        }
      ],
      "stateMutability": "nonpayable",
      "type": "function"
    },
    {
      "inputs": [
        {
          "internalType": "address",
          "name": "_to",
          "type": "address"
        },
        {
          "internalType": "uint256",
          "name": "_index",
          "type": "uint256"
        },
        {
          "internalType": "bytes32",
          "name": "uuid",
          "type": "bytes32"
        }
      ],
      "name": "transferFrom",
      "outputs": [
        {
          "internalType": "bool",
          "name": "",
          "type": "bool"
        }
      ],
      "stateMutability": "nonpayable",
      "type": "function"
    },
    {
      "inputs": [
        {
          "internalType": "int64",
          "name": "_longitude",
          "type": "int64"
        },
        {
          "internalType": "int64",
          "name": "_latitude",
          "type": "int64"
        },
        {
          "internalType": "uint256",
          "name": "_price",
          "type": "uint256"
        },
        {
          "internalType": "string",
          "name": "_imageBase64",
          "type": "string"
        },
        {
          "internalType": "string",
          "name": "_title",
          "type": "string"
        },
        {
          "internalType": "string",
          "name": "_description",
          "type": "string"
        },
        {
          "internalType": "bytes32",
          "name": "uuid",
          "type": "bytes32"
        }
      ],
      "name": "postAnimalInfo",
      "outputs": [
        {
          "internalType": "bool",
          "name": "",
          "type": "bool"
        }
      ],
      "stateMutability": "nonpayable",
      "type": "function"
    },
    {
      "inputs": [
        {
          "internalType": "bytes32",
          "name": "uuid",
          "type": "bytes32"
        }
      ],
      "name": "getUserInfo",
      "outputs": [
        {
          "internalType": "bool",
          "name": "",
          "type": "bool"
        },
        {
          "internalType": "string",
          "name": "",
          "type": "string"
        },
        {
          "internalType": "address",
          "name": "",
          "type": "address"
        }
      ],
      "stateMutability": "view",
      "type": "function",
      "constant": true
    },
    {
      "inputs": [
        {
          "internalType": "uint256",
          "name": "_tokens",
          "type": "uint256"
        }
      ],
      "name": "issueFreeTokens",
      "outputs": [],
      "stateMutability": "nonpayable",
      "type": "function"
    },
    {
      "inputs": [
        {
          "internalType": "string",
          "name": "_userName",
          "type": "string"
        },
        {
          "internalType": "string",
          "name": "_password",
          "type": "string"
        },
        {
          "internalType": "uint256",
          "name": "_tokens",
          "type": "uint256"
        }
      ],
      "name": "register",
      "outputs": [
        {
          "internalType": "bool",
          "name": "",
          "type": "bool"
        }
      ],
      "stateMutability": "payable",
      "type": "function",
      "payable": true
    },
    {
      "inputs": [
        {
          "internalType": "string",
          "name": "userName",
          "type": "string"
        },
        {
          "internalType": "string",
          "name": "password",
          "type": "string"
        },
        {
          "internalType": "string",
          "name": "timestamp",
          "type": "string"
        }
      ],
      "name": "login",
      "outputs": [
        {
          "internalType": "bool",
          "name": "",
          "type": "bool"
        }
      ],
      "stateMutability": "nonpayable",
      "type": "function"
    },
    {
      "inputs": [
        {
          "internalType": "address",
          "name": "_accountAddr",
          "type": "address"
        }
      ],
      "name": "getBalanceof",
      "outputs": [
        {
          "internalType": "uint256",
          "name": "",
          "type": "uint256"
        }
      ],
      "stateMutability": "view",
      "type": "function",
      "constant": true
    },
    {
      "inputs": [
        {
          "internalType": "address",
          "name": "_accountAddr",
          "type": "address"
        },
        {
          "internalType": "bytes32",
          "name": "uuid",
          "type": "bytes32"
        }
      ],
      "name": "checkUUID",
      "outputs": [
        {
          "internalType": "bool",
          "name": "",
          "type": "bool"
        }
      ],
      "stateMutability": "view",
      "type": "function",
      "constant": true
    },
    {
      "inputs": [
        {
          "internalType": "string",
          "name": "a",
          "type": "string"
        },
        {
          "internalType": "string",
          "name": "b",
          "type": "string"
        }
      ],
      "name": "compareStrings",
      "outputs": [
        {
          "internalType": "bool",
          "name": "",
          "type": "bool"
        }
      ],
      "stateMutability": "pure",
      "type": "function",
      "constant": true
    },
    {
      "inputs": [
        {
          "internalType": "string",
          "name": "str",
          "type": "string"
        }
      ],
      "name": "hash",
      "outputs": [
        {
          "internalType": "bytes32",
          "name": "",
          "type": "bytes32"
        }
      ],
      "stateMutability": "pure",
      "type": "function",
      "constant": true
    },
    {
      "inputs": [
        {
          "internalType": "bytes32",
          "name": "_bytes32",
          "type": "bytes32"
        }
      ],
      "name": "bytes32ToString",
      "outputs": [
        {
          "internalType": "string",
          "name": "",
          "type": "string"
        }
      ],
      "stateMutability": "pure",
      "type": "function",
      "constant": true
    }
  ],
  "bytecode": "0x60806040523480156200001157600080fd5b506040516200487e3803806200487e83398181016040528101906200003791906200047d565b82828160039080519060200190620000519291906200033e565b5080600490805190602001906200006a9291906200033e565b506012600560006101000a81548160ff021916908360ff1602179055505050620000b2336200009e620000bb60201b60201c565b60ff16600a0a8302620000d260201b60201c565b505050620005c8565b6000600560009054906101000a900460ff16905090565b600073ffffffffffffffffffffffffffffffffffffffff168273ffffffffffffffffffffffffffffffffffffffff16141562000176576040517f08c379a000000000000000000000000000000000000000000000000000000000815260040180806020018281038252601f8152602001807f45524332303a206d696e7420746f20746865207a65726f20616464726573730081525060200191505060405180910390fd5b6200018a60008383620002b060201b60201c565b620001a681600254620002b560201b620022fb1790919060201c565b60028190555062000204816000808573ffffffffffffffffffffffffffffffffffffffff1673ffffffffffffffffffffffffffffffffffffffff16815260200190815260200160002054620002b560201b620022fb1790919060201c565b6000808473ffffffffffffffffffffffffffffffffffffffff1673ffffffffffffffffffffffffffffffffffffffff168152602001908152602001600020819055508173ffffffffffffffffffffffffffffffffffffffff16600073ffffffffffffffffffffffffffffffffffffffff167fddf252ad1be2c89b69c2b068fc378daa952ba7f163c4a11628f55a4df523b3ef836040518082815260200191505060405180910390a35050565b505050565b60008082840190508381101562000334576040517f08c379a000000000000000000000000000000000000000000000000000000000815260040180806020018281038252601b8152602001807f536166654d6174683a206164646974696f6e206f766572666c6f77000000000081525060200191505060405180910390fd5b8091505092915050565b828054600181600116156101000203166002900490600052602060002090601f016020900481019282620003765760008555620003c2565b82601f106200039157805160ff1916838001178555620003c2565b82800160010185558215620003c2579182015b82811115620003c1578251825591602001919060010190620003a4565b5b509050620003d19190620003d5565b5090565b5b80821115620003f0576000816000905550600101620003d6565b5090565b60006200040b620004058462000539565b62000505565b9050828152602081018484840111156200042457600080fd5b6200043184828562000576565b509392505050565b600082601f8301126200044b57600080fd5b81516200045d848260208601620003f4565b91505092915050565b6000815190506200047781620005ae565b92915050565b6000806000606084860312156200049357600080fd5b600084015167ffffffffffffffff811115620004ae57600080fd5b620004bc8682870162000439565b935050602084015167ffffffffffffffff811115620004da57600080fd5b620004e88682870162000439565b9250506040620004fb8682870162000466565b9150509250925092565b6000604051905081810181811067ffffffffffffffff821117156200052f576200052e620005ac565b5b8060405250919050565b600067ffffffffffffffff821115620005575762000556620005ac565b5b601f19601f8301169050602081019050919050565b6000819050919050565b60005b838110156200059657808201518184015260208101905062000579565b83811115620005a6576000848401525b50505050565bfe5b620005b9816200056c565b8114620005c557600080fd5b50565b6142a680620005d86000396000f3fe6080604052600436106101815760003560e01c806379cc6790116100d1578063adff8b0f1161008a578063ce63176611610064578063ce6317661461062e578063dd62ed3e1461066b578063e8a60558146106a8578063f5315440146106d857610181565b8063adff8b0f14610575578063b411ee94146105b4578063bed34bba146105f157610181565b806379cc67901461042d5780639201de551461045657806395d89b4114610493578063a457c2d7146104be578063a9059cbb146104fb578063aacaa0741461053857610181565b8063395093511161013e578063628f80d511610118578063628f80d51461034d57806370a082311461038a5780637354b088146103c757806378757bba146103f057610181565b806339509351146102aa57806342966c68146102e75780635279b3cf1461031057610181565b806306fdde0314610186578063095ea7b3146101b157806318160ddd146101ee5780631fb9fb8e1461021957806323b872dd14610242578063313ce5671461027f575b600080fd5b34801561019257600080fd5b5061019b610717565b6040516101a89190613b8d565b60405180910390f35b3480156101bd57600080fd5b506101d860048036038101906101d39190612e42565b6107b9565b6040516101e59190613aa6565b60405180910390f35b3480156101fa57600080fd5b506102036107d7565b6040516102109190613ead565b60405180910390f35b34801561022557600080fd5b50610240600480360381019061023b9190612ecd565b6107e1565b005b34801561024e57600080fd5b5061026960048036038101906102649190612db7565b6108ab565b6040516102769190613aa6565b60405180910390f35b34801561028b57600080fd5b50610294610984565b6040516102a19190613ec8565b60405180910390f35b3480156102b657600080fd5b506102d160048036038101906102cc9190612e42565b61099b565b6040516102de9190613aa6565b60405180910390f35b3480156102f357600080fd5b5061030e60048036038101906103099190613228565b610a4e565b005b34801561031c57600080fd5b5061033760048036038101906103329190612e06565b610a62565b6040516103449190613aa6565b60405180910390f35b34801561035957600080fd5b50610374600480360381019061036f9190612e7e565b610ac5565b6040516103819190613aa6565b60405180910390f35b34801561039657600080fd5b506103b160048036038101906103ac9190612d52565b610ee6565b6040516103be9190613ead565b60405180910390f35b3480156103d357600080fd5b506103ee60048036038101906103e99190613228565b610f2e565b005b3480156103fc57600080fd5b5061041760048036038101906104129190612f7f565b610f3c565b6040516104249190613aa6565b60405180910390f35b34801561043957600080fd5b50610454600480360381019061044f9190612e42565b6112de565b005b34801561046257600080fd5b5061047d60048036038101906104789190612ecd565b611340565b60405161048a9190613b8d565b60405180910390f35b34801561049f57600080fd5b506104a86114b1565b6040516104b59190613b8d565b60405180910390f35b3480156104ca57600080fd5b506104e560048036038101906104e09190612e42565b611553565b6040516104f29190613aa6565b60405180910390f35b34801561050757600080fd5b50610522600480360381019061051d9190612e42565b611620565b60405161052f9190613aa6565b60405180910390f35b34801561054457600080fd5b5061055f600480360381019061055a9190612d52565b61163e565b60405161056c9190613ead565b60405180910390f35b34801561058157600080fd5b5061059c60048036038101906105979190612ecd565b611650565b6040516105ab93929190613ac1565b60405180910390f35b3480156105c057600080fd5b506105db60048036038101906105d69190613065565b61177b565b6040516105e89190613aff565b60405180910390f35b3480156105fd57600080fd5b50610618600480360381019061061391906130a6565b6117ab565b6040516106259190613aa6565b60405180910390f35b34801561063a57600080fd5b5061065560048036038101906106509190613112565b611804565b6040516106629190613aa6565b60405180910390f35b34801561067757600080fd5b50610692600480360381019061068d9190612d7b565b611afd565b60405161069f9190613ead565b60405180910390f35b6106c260048036038101906106bd91906131a9565b611b84565b6040516106cf9190613aa6565b60405180910390f35b3480156106e457600080fd5b506106ff60048036038101906106fa9190612ef6565b611eb0565b60405161070e93929190613a68565b60405180910390f35b606060038054600181600116156101000203166002900480601f0160208091040260200160405190810160405280929190818152602001828054600181600116156101000203166002900480156107af5780601f10610784576101008083540402835291602001916107af565b820191906000526020600020905b81548152906001019060200180831161079257829003601f168201915b5050505050905090565b60006107cd6107c6612383565b848461238b565b6001905092915050565b6000600254905090565b6107eb3382610a62565b61082c577f7e867e38084976c20712a0d91d01f492b3fb2c29f25b9cda1ee9af5634c8b863600060405161081f9190613c23565b60405180910390a16108a8565b600760003373ffffffffffffffffffffffffffffffffffffffff1673ffffffffffffffffffffffffffffffffffffffff168152602001908152602001600020600090557f7e867e38084976c20712a0d91d01f492b3fb2c29f25b9cda1ee9af5634c8b863600160405161089f9190613d68565b60405180910390a15b50565b60006108b8848484612582565b610979846108c4612383565b6109748560405180606001604052806028815260200161417160289139600160008b73ffffffffffffffffffffffffffffffffffffffff1673ffffffffffffffffffffffffffffffffffffffff168152602001908152602001600020600061092a612383565b73ffffffffffffffffffffffffffffffffffffffff1673ffffffffffffffffffffffffffffffffffffffff168152602001908152602001600020546128439092919063ffffffff16565b61238b565b600190509392505050565b6000600560009054906101000a900460ff16905090565b6000610a446109a8612383565b84610a3f85600160006109b9612383565b73ffffffffffffffffffffffffffffffffffffffff1673ffffffffffffffffffffffffffffffffffffffff16815260200190815260200160002060008973ffffffffffffffffffffffffffffffffffffffff1673ffffffffffffffffffffffffffffffffffffffff168152602001908152602001600020546122fb90919063ffffffff16565b61238b565b6001905092915050565b610a5f610a59612383565b826128fd565b50565b600080600760008573ffffffffffffffffffffffffffffffffffffffff1673ffffffffffffffffffffffffffffffffffffffff16815260200190815260200160002054905082811415610ab9576001915050610abf565b60009150505b92915050565b6000610ad13383610a62565b610b16577f7e867e38084976c20712a0d91d01f492b3fb2c29f25b9cda1ee9af5634c8b8636000604051610b059190613c23565b60405180910390a160009050610edf565b600060088481548110610b2557fe5b90600052602060002090600802019050610c10816007018054600181600116156101000203166002900480601f016020809104026020016040519081016040528092919081815260200182805460018160011615610100020316600290048015610bd05780601f10610ba557610100808354040283529160200191610bd0565b820191906000526020600020905b815481529060010190602001808311610bb357829003601f168201915b50505050506040518060400160405280600781526020017f4d495353494e47000000000000000000000000000000000000000000000000008152506117ab565b610c56577f7e867e38084976c20712a0d91d01f492b3fb2c29f25b9cda1ee9af5634c8b8636000604051610c449190613c64565b60405180910390a16000915050610edf565b6000610c613361163e565b90508160030154811015610cb2577f7e867e38084976c20712a0d91d01f492b3fb2c29f25b9cda1ee9af5634c8b8636000604051610c9f9190613d27565b60405180910390a1600092505050610edf565b610cc1338784600301546108ab565b15610ea0576040518060400160405280600581526020017f464f554e44000000000000000000000000000000000000000000000000000000815250826007019080519060200190610d13929190612b49565b50610d1c612bd7565b33816000019073ffffffffffffffffffffffffffffffffffffffff16908173ffffffffffffffffffffffffffffffffffffffff168152505086816020019073ffffffffffffffffffffffffffffffffffffffff16908173ffffffffffffffffffffffffffffffffffffffff168152505085816040018181525050600981908060018154018082558091505060019003906000526020600020906003020160009091909190915060008201518160000160006101000a81548173ffffffffffffffffffffffffffffffffffffffff021916908373ffffffffffffffffffffffffffffffffffffffff16021790555060208201518160010160006101000a81548173ffffffffffffffffffffffffffffffffffffffff021916908373ffffffffffffffffffffffffffffffffffffffff1602179055506040820151816002015550507f7e867e38084976c20712a0d91d01f492b3fb2c29f25b9cda1ee9af5634c8b8636001604051610e8c9190613ca5565b60405180910390a160019350505050610edf565b7f7e867e38084976c20712a0d91d01f492b3fb2c29f25b9cda1ee9af5634c8b8636000604051610ed09190613ce6565b60405180910390a16000925050505b9392505050565b60008060008373ffffffffffffffffffffffffffffffffffffffff1673ffffffffffffffffffffffffffffffffffffffff168152602001908152602001600020549050919050565b610f3833826107b9565b5050565b6000610f483383610a62565b610f8d577f7e867e38084976c20712a0d91d01f492b3fb2c29f25b9cda1ee9af5634c8b8636000604051610f7c9190613c23565b60405180910390a1600090506112d3565b610f95612c24565b610f9e8561177b565b81600001818152505088816020019060070b908160070b8152505087816040019060070b908160070b8152505086816080018181525050858160a00181905250848160c00181905250838160e001819052506040518060400160405280600781526020017f4d495353494e470000000000000000000000000000000000000000000000000081525081610100018190525060003390506000600660008373ffffffffffffffffffffffffffffffffffffffff1673ffffffffffffffffffffffffffffffffffffffff1681526020019081526020016000209050806000018054600181600116156101000203166002900480601f01602080910402602001604051908101604052809291908181526020018280546001816001161561010002031660029004801561110f5780601f106110e45761010080835404028352916020019161110f565b820191906000526020600020905b8154815290600101906020018083116110f257829003601f168201915b5050505050836060018190525060088390806001815401808255809150506001900390600052602060002090600802016000909190919091506000820151816000015560208201518160010160006101000a81548167ffffffffffffffff021916908360070b67ffffffffffffffff16021790555060408201518160010160086101000a81548167ffffffffffffffff021916908360070b67ffffffffffffffff16021790555060608201518160020190805190602001906111d2929190612b49565b506080820151816003015560a08201518160040190805190602001906111f9929190612b49565b5060c0820151816005019080519060200190611216929190612b49565b5060e0820151816006019080519060200190611233929190612b49565b50610100820151816007019080519060200190611251929190612b49565b505050600060016008805490500390506000826004019050808290806001815401808255809150506001900390600052602060002001600090919091909150557f7e867e38084976c20712a0d91d01f492b3fb2c29f25b9cda1ee9af5634c8b86360016040516112c19190613da9565b60405180910390a16001955050505050505b979650505050505050565b600061131d826040518060600160405280602481526020016141996024913961130e86611309612383565b611afd565b6128439092919063ffffffff16565b90506113318361132b612383565b8361238b565b61133b83836128fd565b505050565b606060005b60208160ff161080156113905750600060f81b838260ff166020811061136757fe5b1a60f81b7effffffffffffffffffffffffffffffffffffffffffffffffffffffffffffff191614155b156113a2578080600101915050611345565b60008160ff1667ffffffffffffffff811180156113be57600080fd5b506040519080825280601f01601f1916602001820160405280156113f15781602001600182028036833780820191505090505b509050600091505b60208260ff161080156114445750600060f81b848360ff166020811061141b57fe5b1a60f81b7effffffffffffffffffffffffffffffffffffffffffffffffffffffffffffff191614155b156114a757838260ff166020811061145857fe5b1a60f81b818360ff168151811061146b57fe5b60200101907effffffffffffffffffffffffffffffffffffffffffffffffffffffffffffff1916908160001a90535081806001019250506113f9565b8092505050919050565b606060048054600181600116156101000203166002900480601f0160208091040260200160405190810160405280929190818152602001828054600181600116156101000203166002900480156115495780601f1061151e57610100808354040283529160200191611549565b820191906000526020600020905b81548152906001019060200180831161152c57829003601f168201915b5050505050905090565b6000611616611560612383565b846116118560405180606001604052806025815260200161424c602591396001600061158a612383565b73ffffffffffffffffffffffffffffffffffffffff1673ffffffffffffffffffffffffffffffffffffffff16815260200190815260200160002060008a73ffffffffffffffffffffffffffffffffffffffff1673ffffffffffffffffffffffffffffffffffffffff168152602001908152602001600020546128439092919063ffffffff16565b61238b565b6001905092915050565b600061163461162d612383565b8484612582565b6001905092915050565b600061164982610ee6565b9050919050565b6000606060006116603385610a62565b61168c576000336040518060600160405280602581526020016142276025913990925092509250611774565b6001600660003373ffffffffffffffffffffffffffffffffffffffff1673ffffffffffffffffffffffffffffffffffffffff16815260200190815260200160002060000133818054600181600116156101000203166002900480601f0160208091040260200160405190810160405280929190818152602001828054600181600116156101000203166002900480156117665780601f1061173b57610100808354040283529160200191611766565b820191906000526020600020905b81548152906001019060200180831161174957829003601f168201915b505050505091509250925092505b9193909250565b60008160405160200161178e9190613b8d565b604051602081830303815290604052805190602001209050919050565b6000816040516020016117be9190613b8d565b60405160208183030381529060405280519060200120836040516020016117e59190613b8d565b6040516020818303038152906040528051906020012014905092915050565b60008060001b600760003373ffffffffffffffffffffffffffffffffffffffff1673ffffffffffffffffffffffffffffffffffffffff1681526020019081526020016000205414611890577fdfd4252c9dc05aa35cdd825aeca60794fea2c806c941403baa7fef7e85e23a93600060405161187f9190613be9565b60405180910390a160009050611af6565b6000600660003373ffffffffffffffffffffffffffffffffffffffff1673ffffffffffffffffffffffffffffffffffffffff1681526020019081526020016000206000018054600181600116156101000203166002900480601f0160208091040260200160405190810160405280929190818152602001828054600181600116156101000203166002900480156119685780601f1061193d57610100808354040283529160200191611968565b820191906000526020600020905b81548152906001019060200180831161194b57829003601f168201915b505050505090506000600660003373ffffffffffffffffffffffffffffffffffffffff1673ffffffffffffffffffffffffffffffffffffffff1681526020019081526020016000206001015490506119bf8561177b565b811480156119d357506119d282876117ab565b5b15611ab7576000866040516020016119eb9190613b8d565b60405160208183030381529060405290508085604051602001611a0f929190613b56565b604051602081830303815290604052905060008180519060200120905080600760003373ffffffffffffffffffffffffffffffffffffffff1673ffffffffffffffffffffffffffffffffffffffff168152602001908152602001600020819055507fdfd4252c9dc05aa35cdd825aeca60794fea2c806c941403baa7fef7e85e23a93816001604051611aa2929190613b1a565b60405180910390a16001945050505050611af6565b7fdfd4252c9dc05aa35cdd825aeca60794fea2c806c941403baa7fef7e85e23a936000604051611ae79190613baf565b60405180910390a16000925050505b9392505050565b6000600160008473ffffffffffffffffffffffffffffffffffffffff1673ffffffffffffffffffffffffffffffffffffffff16815260200190815260200160002060008373ffffffffffffffffffffffffffffffffffffffff1673ffffffffffffffffffffffffffffffffffffffff16815260200190815260200160002054905092915050565b600080600660003373ffffffffffffffffffffffffffffffffffffffff1673ffffffffffffffffffffffffffffffffffffffff1681526020019081526020016000209050611c7d816000018054600181600116156101000203166002900480601f016020809104026020016040519081016040528092919081815260200182805460018160011615610100020316600290048015611c635780601f10611c3857610100808354040283529160200191611c63565b820191906000526020600020905b815481529060010190602001808311611c4657829003601f168201915b5050505050604051806020016040528060008152506117ab565b611cc3577f7e867e38084976c20712a0d91d01f492b3fb2c29f25b9cda1ee9af5634c8b8636000604051611cb19190613e2b565b60405180910390a16000915050611ea9565b84816000019080519060200190611cdb929190612b49565b50611ce58461177b565b8160010181905550828160020181905550338160030160006101000a81548173ffffffffffffffffffffffffffffffffffffffff021916908373ffffffffffffffffffffffffffffffffffffffff1602179055506000600660003373ffffffffffffffffffffffffffffffffffffffff1673ffffffffffffffffffffffffffffffffffffffff1681526020019081526020016000209050611e22816000018054600181600116156101000203166002900480601f016020809104026020016040519081016040528092919081815260200182805460018160011615610100020316600290048015611e175780601f10611dec57610100808354040283529160200191611e17565b820191906000526020600020905b815481529060010190602001808311611dfa57829003601f168201915b5050505050876117ab565b15611e6a577f7e867e38084976c20712a0d91d01f492b3fb2c29f25b9cda1ee9af5634c8b8636001604051611e579190613dea565b60405180910390a1600192505050611ea9565b7f7e867e38084976c20712a0d91d01f492b3fb2c29f25b9cda1ee9af5634c8b8636000604051611e9a9190613e6c565b60405180910390a16000925050505b9392505050565b6060600080611ebf3385610a62565b611f0d577f7e867e38084976c20712a0d91d01f492b3fb2c29f25b9cda1ee9af5634c8b8636000604051611ef39190613c23565b60405180910390a1606080600080935093509350506122ef565b60088080549050600182805480602002602001604051908101604052809291908181526020016000905b828210156122e2578382906000526020600020906008020160405180610120016040529081600082015481526020016001820160009054906101000a900460070b60070b60070b81526020016001820160089054906101000a900460070b60070b60070b8152602001600282018054600181600116156101000203166002900480601f0160208091040260200160405190810160405280929190818152602001828054600181600116156101000203166002900480156120385780601f1061200d57610100808354040283529160200191612038565b820191906000526020600020905b81548152906001019060200180831161201b57829003601f168201915b5050505050815260200160038201548152602001600482018054600181600116156101000203166002900480601f0160208091040260200160405190810160405280929190818152602001828054600181600116156101000203166002900480156120e45780601f106120b9576101008083540402835291602001916120e4565b820191906000526020600020905b8154815290600101906020018083116120c757829003601f168201915b50505050508152602001600582018054600181600116156101000203166002900480601f0160208091040260200160405190810160405280929190818152602001828054600181600116156101000203166002900480156121865780601f1061215b57610100808354040283529160200191612186565b820191906000526020600020905b81548152906001019060200180831161216957829003601f168201915b50505050508152602001600682018054600181600116156101000203166002900480601f0160208091040260200160405190810160405280929190818152602001828054600181600116156101000203166002900480156122285780601f106121fd57610100808354040283529160200191612228565b820191906000526020600020905b81548152906001019060200180831161220b57829003601f168201915b50505050508152602001600782018054600181600116156101000203166002900480601f0160208091040260200160405190810160405280929190818152602001828054600181600116156101000203166002900480156122ca5780601f1061229f576101008083540402835291602001916122ca565b820191906000526020600020905b8154815290600101906020018083116122ad57829003601f168201915b50505050508152505081526020019060010190611f37565b5050505092509250925092505b96509650969350505050565b600080828401905083811015612379576040517f08c379a000000000000000000000000000000000000000000000000000000000815260040180806020018281038252601b8152602001807f536166654d6174683a206164646974696f6e206f766572666c6f77000000000081525060200191505060405180910390fd5b8091505092915050565b600033905090565b600073ffffffffffffffffffffffffffffffffffffffff168373ffffffffffffffffffffffffffffffffffffffff161415612411576040517f08c379a00000000000000000000000000000000000000000000000000000000081526004018080602001828103825260248152602001806142036024913960400191505060405180910390fd5b600073ffffffffffffffffffffffffffffffffffffffff168273ffffffffffffffffffffffffffffffffffffffff161415612497576040517f08c379a00000000000000000000000000000000000000000000000000000000081526004018080602001828103825260228152602001806141296022913960400191505060405180910390fd5b80600160008573ffffffffffffffffffffffffffffffffffffffff1673ffffffffffffffffffffffffffffffffffffffff16815260200190815260200160002060008473ffffffffffffffffffffffffffffffffffffffff1673ffffffffffffffffffffffffffffffffffffffff168152602001908152602001600020819055508173ffffffffffffffffffffffffffffffffffffffff168373ffffffffffffffffffffffffffffffffffffffff167f8c5be1e5ebec7d5bd14f71427d1e84f3dd0314c0f7b2291e5b200ac8c7c3b925836040518082815260200191505060405180910390a3505050565b600073ffffffffffffffffffffffffffffffffffffffff168373ffffffffffffffffffffffffffffffffffffffff161415612608576040517f08c379a00000000000000000000000000000000000000000000000000000000081526004018080602001828103825260258152602001806141de6025913960400191505060405180910390fd5b600073ffffffffffffffffffffffffffffffffffffffff168273ffffffffffffffffffffffffffffffffffffffff16141561268e576040517f08c379a00000000000000000000000000000000000000000000000000000000081526004018080602001828103825260238152602001806140e46023913960400191505060405180910390fd5b612699838383612ac1565b6127048160405180606001604052806026815260200161414b602691396000808773ffffffffffffffffffffffffffffffffffffffff1673ffffffffffffffffffffffffffffffffffffffff168152602001908152602001600020546128439092919063ffffffff16565b6000808573ffffffffffffffffffffffffffffffffffffffff1673ffffffffffffffffffffffffffffffffffffffff16815260200190815260200160002081905550612797816000808573ffffffffffffffffffffffffffffffffffffffff1673ffffffffffffffffffffffffffffffffffffffff168152602001908152602001600020546122fb90919063ffffffff16565b6000808473ffffffffffffffffffffffffffffffffffffffff1673ffffffffffffffffffffffffffffffffffffffff168152602001908152602001600020819055508173ffffffffffffffffffffffffffffffffffffffff168373ffffffffffffffffffffffffffffffffffffffff167fddf252ad1be2c89b69c2b068fc378daa952ba7f163c4a11628f55a4df523b3ef836040518082815260200191505060405180910390a3505050565b60008383111582906128f0576040517f08c379a00000000000000000000000000000000000000000000000000000000081526004018080602001828103825283818151815260200191508051906020019080838360005b838110156128b557808201518184015260208101905061289a565b50505050905090810190601f1680156128e25780820380516001836020036101000a031916815260200191505b509250505060405180910390fd5b5082840390509392505050565b600073ffffffffffffffffffffffffffffffffffffffff168273ffffffffffffffffffffffffffffffffffffffff161415612983576040517f08c379a00000000000000000000000000000000000000000000000000000000081526004018080602001828103825260218152602001806141bd6021913960400191505060405180910390fd5b61298f82600083612ac1565b6129fa81604051806060016040528060228152602001614107602291396000808673ffffffffffffffffffffffffffffffffffffffff1673ffffffffffffffffffffffffffffffffffffffff168152602001908152602001600020546128439092919063ffffffff16565b6000808473ffffffffffffffffffffffffffffffffffffffff1673ffffffffffffffffffffffffffffffffffffffff16815260200190815260200160002081905550612a5181600254612ac690919063ffffffff16565b600281905550600073ffffffffffffffffffffffffffffffffffffffff168273ffffffffffffffffffffffffffffffffffffffff167fddf252ad1be2c89b69c2b068fc378daa952ba7f163c4a11628f55a4df523b3ef836040518082815260200191505060405180910390a35050565b505050565b600082821115612b3e576040517f08c379a000000000000000000000000000000000000000000000000000000000815260040180806020018281038252601e8152602001807f536166654d6174683a207375627472616374696f6e206f766572666c6f77000081525060200191505060405180910390fd5b818303905092915050565b828054600181600116156101000203166002900490600052602060002090601f016020900481019282612b7f5760008555612bc6565b82601f10612b9857805160ff1916838001178555612bc6565b82800160010185558215612bc6579182015b82811115612bc5578251825591602001919060010190612baa565b5b509050612bd39190612c79565b5090565b6040518060600160405280600073ffffffffffffffffffffffffffffffffffffffff168152602001600073ffffffffffffffffffffffffffffffffffffffff168152602001600081525090565b60405180610120016040528060008019168152602001600060070b8152602001600060070b81526020016060815260200160008152602001606081526020016060815260200160608152602001606081525090565b5b80821115612c92576000816000905550600101612c7a565b5090565b6000612ca9612ca484613f14565b613ee3565b905082815260208101848484011115612cc157600080fd5b612ccc848285614032565b509392505050565b600081359050612ce381614087565b92915050565b600081359050612cf88161409e565b92915050565b600081359050612d0d816140b5565b92915050565b600082601f830112612d2457600080fd5b8135612d34848260208601612c96565b91505092915050565b600081359050612d4c816140cc565b92915050565b600060208284031215612d6457600080fd5b6000612d7284828501612cd4565b91505092915050565b60008060408385031215612d8e57600080fd5b6000612d9c85828601612cd4565b9250506020612dad85828601612cd4565b9150509250929050565b600080600060608486031215612dcc57600080fd5b6000612dda86828701612cd4565b9350506020612deb86828701612cd4565b9250506040612dfc86828701612d3d565b9150509250925092565b60008060408385031215612e1957600080fd5b6000612e2785828601612cd4565b9250506020612e3885828601612ce9565b9150509250929050565b60008060408385031215612e5557600080fd5b6000612e6385828601612cd4565b9250506020612e7485828601612d3d565b9150509250929050565b600080600060608486031215612e9357600080fd5b6000612ea186828701612cd4565b9350506020612eb286828701612d3d565b9250506040612ec386828701612ce9565b9150509250925092565b600060208284031215612edf57600080fd5b6000612eed84828501612ce9565b91505092915050565b60008060008060008060c08789031215612f0f57600080fd5b6000612f1d89828a01612cfe565b9650506020612f2e89828a01612cfe565b9550506040612f3f89828a01612cfe565b9450506060612f5089828a01612cfe565b9350506080612f6189828a01612cfe565b92505060a0612f7289828a01612ce9565b9150509295509295509295565b600080600080600080600060e0888a031215612f9a57600080fd5b6000612fa88a828b01612cfe565b9750506020612fb98a828b01612cfe565b9650506040612fca8a828b01612d3d565b955050606088013567ffffffffffffffff811115612fe757600080fd5b612ff38a828b01612d13565b945050608088013567ffffffffffffffff81111561301057600080fd5b61301c8a828b01612d13565b93505060a088013567ffffffffffffffff81111561303957600080fd5b6130458a828b01612d13565b92505060c06130568a828b01612ce9565b91505092959891949750929550565b60006020828403121561307757600080fd5b600082013567ffffffffffffffff81111561309157600080fd5b61309d84828501612d13565b91505092915050565b600080604083850312156130b957600080fd5b600083013567ffffffffffffffff8111156130d357600080fd5b6130df85828601612d13565b925050602083013567ffffffffffffffff8111156130fc57600080fd5b61310885828601612d13565b9150509250929050565b60008060006060848603121561312757600080fd5b600084013567ffffffffffffffff81111561314157600080fd5b61314d86828701612d13565b935050602084013567ffffffffffffffff81111561316a57600080fd5b61317686828701612d13565b925050604084013567ffffffffffffffff81111561319357600080fd5b61319f86828701612d13565b9150509250925092565b6000806000606084860312156131be57600080fd5b600084013567ffffffffffffffff8111156131d857600080fd5b6131e486828701612d13565b935050602084013567ffffffffffffffff81111561320157600080fd5b61320d86828701612d13565b925050604061321e86828701612d3d565b9150509250925092565b60006020828403121561323a57600080fd5b600061324884828501612d3d565b91505092915050565b600061325d838361395a565b905092915050565b61326e81613fc6565b82525050565b600061327f82613f54565b6132898185613f82565b93508360208202850161329b85613f44565b8060005b858110156132d757848403895281516132b88582613251565b94506132c383613f75565b925060208a0199505060018101905061329f565b50829750879550505050505092915050565b6132f281613fd8565b82525050565b61330181613fe4565b82525050565b61331081613fe4565b82525050565b600061332182613f5f565b61332b8185613f93565b935061333b818560208601614041565b61334481614076565b840191505092915050565b61335881613fee565b82525050565b600061336982613f6a565b6133738185613fa4565b9350613383818560208601614041565b61338c81614076565b840191505092915050565b60006133a282613f6a565b6133ac8185613fb5565b93506133bc818560208601614041565b6133c581614076565b840191505092915050565b60006133dd600d83613fb5565b91507f4c6f67696e206661696c656421000000000000000000000000000000000000006000830152602082019050919050565b7f3000000000000000000000000000000000000000000000000000000000000000815250565b6000613443602683613fb5565b91507f416e696d616c20696e666f726d6174696f6e206164646564207375636365737360008301527f66756c6c792100000000000000000000000000000000000000000000000000006020830152604082019050919050565b60006134a9601683613fb5565b91507f52656769737465726174696f6e207375636365656421000000000000000000006000830152602082019050919050565b60006134e9601a83613fb5565b91507f546865726520697320616e206578697374696e672075736572210000000000006000830152602082019050919050565b6000613529602a83613fb5565b91507f52657175657374656420616e696d616c2068617320616c72656164792062656560008301527f6e2061646f7074656421000000000000000000000000000000000000000000006020830152604082019050919050565b600061358f600b83613fb5565b91507f555345525f4143544956450000000000000000000000000000000000000000006000830152602082019050919050565b60006135cf601483613fb5565b91507f5472616e73616374696f6e2073756363657373210000000000000000000000006000830152602082019050919050565b600061360f600b83613fb5565b91507f5452414e53414354494f4e0000000000000000000000000000000000000000006000830152602082019050919050565b600061364f602683613fb5565b91507f5472616e73616374696f6e206661696c6564207769746820756e6b6e6f776e2060008301527f63617573652100000000000000000000000000000000000000000000000000006020830152604082019050919050565b60006136b5600e83613fb5565b91507f4c6f67696e2073756363657373210000000000000000000000000000000000006000830152602082019050919050565b60006136f5600683613fb5565b91507f4c4f474f555400000000000000000000000000000000000000000000000000006000830152602082019050919050565b6000613735601583613fb5565b91507f557365722073686f756c64206265206c6f676f757400000000000000000000006000830152602082019050919050565b6000613775602883613fb5565b91507f52656769737465726174696f6e206661696c6564207769746820756e6b6e6f7760008301527f6e206572726f72210000000000000000000000000000000000000000000000006020830152604082019050919050565b60006137db602d83613fb5565b91507f42757965722068617320696e73756666696369656e742066756e6420666f722060008301527f74686973207061796d656e7421000000000000000000000000000000000000006020830152604082019050919050565b6000613841600f83613fb5565b91507f414e494d414c5f494e464f5f4f505300000000000000000000000000000000006000830152602082019050919050565b6000613881601383613fb5565b91507f5573657220616c7265616479206c6f67696e21000000000000000000000000006000830152602082019050919050565b60006138c1602583613fb5565b91507f55736572206973206e6f74206c6f67696e2c207265717565737420697320726560008301527f66757365640000000000000000000000000000000000000000000000000000006020830152604082019050919050565b6000613927600c83613fb5565b91507f524547495354524154494f4e00000000000000000000000000000000000000006000830152602082019050919050565b60006101208301600083015161397360008601826132f8565b506020830151613986602086018261334f565b506040830151613999604086018261334f565b50606083015184820360608601526139b1828261335e565b91505060808301516139c66080860182613a3b565b5060a083015184820360a08601526139de828261335e565b91505060c083015184820360c08601526139f8828261335e565b91505060e083015184820360e0860152613a12828261335e565b915050610100830151848203610100860152613a2e828261335e565b9150508091505092915050565b613a448161401b565b82525050565b613a538161401b565b82525050565b613a6281614025565b82525050565b60006060820190508181036000830152613a828186613274565b9050613a916020830185613a4a565b613a9e60408301846132e9565b949350505050565b6000602082019050613abb60008301846132e9565b92915050565b6000606082019050613ad660008301866132e9565b8181036020830152613ae88185613397565b9050613af76040830184613265565b949350505050565b6000602082019050613b146000830184613307565b92915050565b6000606082019050613b2f6000830185613307565b8181036020830152613b40816136a8565b9050613b4f60408301846132e9565b9392505050565b60006040820190508181036000830152613b708185613316565b90508181036020830152613b848184613397565b90509392505050565b60006020820190508181036000830152613ba78184613397565b905092915050565b6000606082019050613bc360008301613410565b8181036020830152613bd4816133d0565b9050613be360408301846132e9565b92915050565b6000606082019050613bfd60008301613410565b8181036020830152613c0e81613874565b9050613c1d60408301846132e9565b92915050565b60006060820190508181036000830152613c3c81613582565b90508181036020830152613c4f816138b4565b9050613c5e60408301846132e9565b92915050565b60006060820190508181036000830152613c7d81613602565b90508181036020830152613c908161351c565b9050613c9f60408301846132e9565b92915050565b60006060820190508181036000830152613cbe81613602565b90508181036020830152613cd1816135c2565b9050613ce060408301846132e9565b92915050565b60006060820190508181036000830152613cff81613602565b90508181036020830152613d1281613642565b9050613d2160408301846132e9565b92915050565b60006060820190508181036000830152613d4081613602565b90508181036020830152613d53816137ce565b9050613d6260408301846132e9565b92915050565b60006060820190508181036000830152613d81816136e8565b90508181036020830152613d9481613728565b9050613da360408301846132e9565b92915050565b60006060820190508181036000830152613dc281613834565b90508181036020830152613dd581613436565b9050613de460408301846132e9565b92915050565b60006060820190508181036000830152613e038161391a565b90508181036020830152613e168161349c565b9050613e2560408301846132e9565b92915050565b60006060820190508181036000830152613e448161391a565b90508181036020830152613e57816134dc565b9050613e6660408301846132e9565b92915050565b60006060820190508181036000830152613e858161391a565b90508181036020830152613e9881613768565b9050613ea760408301846132e9565b92915050565b6000602082019050613ec26000830184613a4a565b92915050565b6000602082019050613edd6000830184613a59565b92915050565b6000604051905081810181811067ffffffffffffffff82111715613f0a57613f09614074565b5b8060405250919050565b600067ffffffffffffffff821115613f2f57613f2e614074565b5b601f19601f8301169050602081019050919050565b6000819050602082019050919050565b600081519050919050565b600081519050919050565b600081519050919050565b6000602082019050919050565b600082825260208201905092915050565b600082825260208201905092915050565b600082825260208201905092915050565b600082825260208201905092915050565b6000613fd182613ffb565b9050919050565b60008115159050919050565b6000819050919050565b60008160070b9050919050565b600073ffffffffffffffffffffffffffffffffffffffff82169050919050565b6000819050919050565b600060ff82169050919050565b82818337600083830152505050565b60005b8381101561405f578082015181840152602081019050614044565b8381111561406e576000848401525b50505050565bfe5b6000601f19601f8301169050919050565b61409081613fc6565b811461409b57600080fd5b50565b6140a781613fe4565b81146140b257600080fd5b50565b6140be81613fee565b81146140c957600080fd5b50565b6140d58161401b565b81146140e057600080fd5b5056fe45524332303a207472616e7366657220746f20746865207a65726f206164647265737345524332303a206275726e20616d6f756e7420657863656564732062616c616e636545524332303a20617070726f766520746f20746865207a65726f206164647265737345524332303a207472616e7366657220616d6f756e7420657863656564732062616c616e636545524332303a207472616e7366657220616d6f756e74206578636565647320616c6c6f77616e636545524332303a206275726e20616d6f756e74206578636565647320616c6c6f77616e636545524332303a206275726e2066726f6d20746865207a65726f206164647265737345524332303a207472616e736665722066726f6d20746865207a65726f206164647265737345524332303a20617070726f76652066726f6d20746865207a65726f206164647265737355736572206973206e6f74206c6f67696e2c2072657175657374206973207265667573656445524332303a2064656372656173656420616c6c6f77616e63652062656c6f77207a65726fa264697066735822122050fbf2d36fcb5718ad2def169abac7ac89e1606a249d20627d693d553dc6652764736f6c63430007060033",
  "immutableReferences": {},
  "source": "// SPDX-License-Identifier: MIT\npragma solidity ^0.7.6;\npragma abicoder v2;\n\nimport \"../../node_modules/openzeppelin-solidity/contracts/token/ERC20/ERC20.sol\";\nimport \"../../node_modules/openzeppelin-solidity/contracts/token/ERC20/ERC20Burnable.sol\";\n\ncontract AdoptionCentre is ERC20, ERC20Burnable {\n    constructor(\n        string memory name,\n        string memory symbol,\n        uint256 amount\n    )\n    ERC20Burnable()\n    ERC20(name, symbol)\n    {\n        _mint(msg.sender, amount * (10 ** decimals()));\n    }\n\n    struct UserInfo {\n        string userName;\n        bytes32 passHash;\n        uint256 tokens;\n        address accountAddress;\n        uint256[] postedAnimalIndex;\n        uint256[] transactionIndex;\n    }\n\n    // longitude = (longitude from js) * 10^6\n    // latitude = (latitude from js) * 10^6\n    struct AnimalInfo {\n        bytes32 animalID;\n        int64 longitude;\n        int64 latitude;\n        string contactUserName;\n        uint256 price;\n        string imageBase64;\n        string title;\n        string description;\n        // status = \"MISSING\", \"FOUND\"\n        string status;\n    }\n\n    struct TransactionInfo {\n        address from;\n        address to;\n        uint256 animalIndex;\n    }\n\n    // username to user information\n    mapping (address => UserInfo) users;\n    // uuid to username\n    mapping (address => bytes32) activeUsers;\n\n    // all animal information\n    AnimalInfo[] animalInfos;\n    // all transaction inforamtion\n    TransactionInfo[] transactionInfos;\n\n    // Events\n    // eventType = \"ANIMAL_INFO_OPS\", \"USER_ACTIVE\", \"TRANSACTION\", \"REGISTRATION\", \"LOGOUT\"\n    event OperationEvents(string eventType, string eventMsg, bool success);\n    event AcquireUserInfo(string userName, address addr);\n    event LoginEvent(bytes32 uuid, string eventMsg, bool success);\n\n    // User operation funcs\n    function logout(bytes32 uuid) public {\n        if (!checkUUID(msg.sender, uuid)) {\n            emit OperationEvents(\"USER_ACTIVE\", \"User is not login, request is refused\", false);\n            return;\n        }\n        delete activeUsers[msg.sender];\n        emit OperationEvents(\"LOGOUT\", \"User should be logout\", true);\n    }\n\n    function getAnimalNearBy(int64 top, int64 bottom, int64 left, int64 right, int64 radius, bytes32 uuid) public returns(AnimalInfo[] memory, uint256, bool) {\n        if (!checkUUID(msg.sender, uuid)) {\n            emit OperationEvents(\"USER_ACTIVE\", \"User is not login, request is refused\", false);\n            AnimalInfo[] memory tmp;\n            return (tmp, 0, false);\n        }\n        return (animalInfos, animalInfos.length, true);\n    }\n\n    function transferFrom(address _to, uint256 _index, bytes32 uuid) public returns(bool) {\n        if (!checkUUID(msg.sender, uuid)) {\n            emit OperationEvents(\"USER_ACTIVE\", \"User is not login, request is refused\", false);\n            return false;\n        }\n        AnimalInfo storage animal = animalInfos[_index];\n        if (!compareStrings(animal.status, \"MISSING\")) {\n            emit OperationEvents(\"TRANSACTION\", \"Requested animal has already been adopted!\", false);\n            return false;\n        }\n        uint256 buyerBalance = getBalanceof(msg.sender);\n        if (buyerBalance < animal.price) {\n            emit OperationEvents(\"TRANSACTION\", \"Buyer has insufficient fund for this payment!\", false);\n            return false;\n        }\n\n        if (transferFrom(msg.sender, _to, animal.price)){\n            animal.status = \"FOUND\";\n            TransactionInfo memory trans;\n            trans.from = msg.sender;\n            trans.to = _to;\n            trans.animalIndex = _index;\n            transactionInfos.push(trans);\n            emit OperationEvents(\"TRANSACTION\", \"Transaction success!\", true);\n            return true;\n        } else {\n            emit OperationEvents(\"TRANSACTION\", \"Transaction failed with unknown cause!\", false);\n            return false;\n        }\n        \n    }\n\n    function postAnimalInfo(int64 _longitude, int64 _latitude, uint256 _price, string memory _imageBase64, string memory _title, string memory _description, bytes32 uuid) public returns(bool) {\n        if (!checkUUID(msg.sender, uuid)) {\n            emit OperationEvents(\"USER_ACTIVE\", \"User is not login, request is refused\", false);\n            return false;\n        }\n        AnimalInfo memory info;\n        info.animalID = hash(_title);\n        info.longitude = _longitude;\n        info.latitude = _latitude;\n        info.price = _price;\n        info.imageBase64 = _imageBase64;\n        info.title = _title;\n        info.description = _description;\n        info.status = \"MISSING\";\n        address userAddr = msg.sender;\n        UserInfo storage userInfo = users[userAddr];\n        info.contactUserName = userInfo.userName;\n        animalInfos.push(info);\n        uint256 loc = animalInfos.length - 1;\n        uint256[] storage animalSerial = userInfo.postedAnimalIndex;\n        animalSerial.push(loc);\n        emit OperationEvents(\"ANIMAL_INFO_OPS\", \"Animal information added successfully!\", true);\n        return true;\n    }\n\n    function getUserInfo(bytes32 uuid) public view returns(bool, string memory, address) {\n        if (!checkUUID(msg.sender, uuid)) {\n            return (false, \"User is not login, request is refused\", msg.sender);\n        }\n        return (true, users[msg.sender].userName, msg.sender);\n    }\n\n    function issueFreeTokens(uint256 _tokens) public {\n        approve(msg.sender, _tokens);\n    }\n\n    function register(string memory _userName, string memory _password, uint256 _tokens) public payable returns(bool) {\n        UserInfo storage user = users[msg.sender];\n        if (!compareStrings(user.userName, \"\")) {\n            OperationEvents(\"REGISTRATION\", \"There is an existing user!\", false);\n            return false;\n        }\n        user.userName = _userName;\n        user.passHash = hash(_password);\n        user.tokens = _tokens;\n        user.accountAddress = msg.sender;\n        UserInfo storage newUser = users[msg.sender];\n        if (compareStrings(newUser.userName, _userName)) {\n            emit OperationEvents(\"REGISTRATION\", \"Registeration succeed!\", true);\n            return true;\n        }\n        emit OperationEvents(\"REGISTRATION\", \"Registeration failed with unknown error!\", false);\n        return false;\n    }\n\n    function login(string memory userName, string memory password, string memory timestamp) public returns(bool) {\n        if (activeUsers[msg.sender] != 0) {\n            emit LoginEvent('0', \"User already login!\", false);\n            return false;\n        }\n        string memory currUserName = users[msg.sender].userName;\n        bytes32 currPassword = users[msg.sender].passHash;\n        if (currPassword == hash(password) && compareStrings(currUserName, userName)) {\n            bytes memory uuid_b = abi.encode(userName);\n            uuid_b = abi.encode(uuid_b, timestamp);\n            bytes32 uuid = keccak256(uuid_b);\n            activeUsers[msg.sender] = uuid;\n            emit LoginEvent(uuid, \"Login success!\", true);\n            return true;\n        }\n        emit LoginEvent('0', \"Login failed!\", false);\n        return false;\n    }\n\n    // Token operation funcs\n    function getBalanceof(address _accountAddr) public view returns(uint256) {\n        return balanceOf(_accountAddr);\n    }\n\n    // Helper funcs\n    function checkUUID(address _accountAddr, bytes32 uuid) public view returns(bool) {\n        bytes32 currUUID = activeUsers[_accountAddr];\n        if (currUUID == uuid) {\n            return true;\n        }\n        return false;\n    }\n\n    function compareStrings(string memory a, string memory b) public pure returns (bool) {\n        return (keccak256(abi.encode((a))) == keccak256(abi.encode((b))));\n    }\n\n    function hash(string memory str) public pure returns(bytes32) {\n        return keccak256(abi.encode(str));\n    }\n\n    function bytes32ToString(bytes32 _bytes32) public pure returns (string memory) {\n        uint8 i = 0;\n        while(i < 32 && _bytes32[i] != 0) {\n            i++;\n        }\n        bytes memory bytesArray = new bytes(i);\n        for (i = 0; i < 32 && _bytes32[i] != 0; i++) {\n            bytesArray[i] = _bytes32[i];\n        }\n        return string(bytesArray);\n    }\n}\n",
  "sourcePath": "/Users/Bevis/Local-Files/EECE571G/EECE571G-Project/animal_adoption_dapp/src/contracts/AdoptionCentre.sol",
  "compiler": {
    "name": "solc",
    "version": "0.7.6+commit.7338295f.Emscripten.clang"
  },
  "schemaVersion": "3.3.4",
  "updatedAt": "2021-03-23T16:19:08.482Z",
  "networkType": "ethereum",
  "devdoc": {
    "kind": "dev",
    "methods": {
      "allowance(address,address)": {
        "details": "See {IERC20-allowance}."
      },
      "approve(address,uint256)": {
        "details": "See {IERC20-approve}. Requirements: - `spender` cannot be the zero address."
      },
      "balanceOf(address)": {
        "details": "See {IERC20-balanceOf}."
      },
      "burn(uint256)": {
        "details": "Destroys `amount` tokens from the caller. See {ERC20-_burn}."
      },
      "burnFrom(address,uint256)": {
        "details": "Destroys `amount` tokens from `account`, deducting from the caller's allowance. See {ERC20-_burn} and {ERC20-allowance}. Requirements: - the caller must have allowance for ``accounts``'s tokens of at least `amount`."
      },
      "decimals()": {
        "details": "Returns the number of decimals used to get its user representation. For example, if `decimals` equals `2`, a balance of `505` tokens should be displayed to a user as `5,05` (`505 / 10 ** 2`). Tokens usually opt for a value of 18, imitating the relationship between Ether and Wei. This is the value {ERC20} uses, unless {_setupDecimals} is called. NOTE: This information is only used for _display_ purposes: it in no way affects any of the arithmetic of the contract, including {IERC20-balanceOf} and {IERC20-transfer}."
      },
      "decreaseAllowance(address,uint256)": {
        "details": "Atomically decreases the allowance granted to `spender` by the caller. This is an alternative to {approve} that can be used as a mitigation for problems described in {IERC20-approve}. Emits an {Approval} event indicating the updated allowance. Requirements: - `spender` cannot be the zero address. - `spender` must have allowance for the caller of at least `subtractedValue`."
      },
      "increaseAllowance(address,uint256)": {
        "details": "Atomically increases the allowance granted to `spender` by the caller. This is an alternative to {approve} that can be used as a mitigation for problems described in {IERC20-approve}. Emits an {Approval} event indicating the updated allowance. Requirements: - `spender` cannot be the zero address."
      },
      "name()": {
        "details": "Returns the name of the token."
      },
      "symbol()": {
        "details": "Returns the symbol of the token, usually a shorter version of the name."
      },
      "totalSupply()": {
        "details": "See {IERC20-totalSupply}."
      },
      "transfer(address,uint256)": {
        "details": "See {IERC20-transfer}. Requirements: - `recipient` cannot be the zero address. - the caller must have a balance of at least `amount`."
      },
      "transferFrom(address,address,uint256)": {
        "details": "See {IERC20-transferFrom}. Emits an {Approval} event indicating the updated allowance. This is not required by the EIP. See the note at the beginning of {ERC20}. Requirements: - `sender` and `recipient` cannot be the zero address. - `sender` must have a balance of at least `amount`. - the caller must have allowance for ``sender``'s tokens of at least `amount`."
      }
    },
    "version": 1
  },
  "userdoc": {
    "kind": "user",
    "methods": {},
    "version": 1
  }
}